:020000020000FC
:10000000FDC1189518951895189518951895189577
:100010001895189518951895189518951895189578
:100020001895189541C01895189518951895189514
:040030001895189572
:10004000002700933F01009340010093410100937A
:100050004201009343010093440100E0009300013A
:10006000519A00E00093C50005E00093C40000270A
:100070000093C00008E90093C10006E00093C200AD
:1000800008950091C00000640093C0005093C60022
:100090000091C00006FFFCCF08950091C00007FF4B
:1000A000FCCF5091C6000895DFB65091C6000F9363
:1000B00000910001003029F405E850135CC001E014
:1000C00060C0013031F450933F015093010102E0D0
:1000D00058C00230A9F45093400150930201CF93CD
:1000E000DF93C3E0D1E0C0934101D0934201CC271C
:1000F000C0934301C0934401DF91CF9103E041C01D
:10010000033021F5CF93DF93C0914101D09142019B
:100110005993C0934101D0934201C0914301D091C2
:100120004401C50F5527D51FC0934301D093440107
:10013000C0913F01D09140012197C0933F01D093DE
:100140004001DF91CF91E9F404E01BC0043021F4B9
:10015000513289F405E015C0053031F400914301B6
:10016000501749F406E00DC0063029F4009144010F
:10017000501709F44160002700933F0100934001AC
:1001800000E0009300010F91DFBE18955D9AC3E077
:10019000D1E0A0910101B091020169917991899119
:1001A0002197633109F02BC07030E1F400E009932E
:1001B00001E009930DE0099303E5099303E3099333
:1001C00001E0099309EB099302E5099302E0099321
:1001D00000E00993A8E000270993AA95E9F7BB2757
:1001E000A4E162C0703F41F40AE50093000105EA12
:1001F0000093010175D0FFCF7F3F39F450C0BB277A
:10020000A3E002E0009305014FC051E1751302C065
:1002100089D045C052E1751302C084D040C053E17B
:10022000751302C084D03BC054E1751302C084D062
:1002300036C055E1751302C084D031C056E1751344
:1002400002C084D02CC057E1751302C084D027C0EF
:1002500051E2751302C090D022C052E2751302C061
:1002600090D01DC053E2751303C0282E8FD017C045
:1002700054E2751303C0282EB1D011C055E2751396
:1002800003C0282EAFD00BC056E2751303C0282E32
:10029000ADD005C057E2751307C0282EABD0BB27E1
:1002A000A3E000E0009305014E7F5D9801D0089522
:1002B000EE27FF27C3E0D1E055E8E3DE5A2FE1DE69
:1002C0005B2FDFDE59910027E50FF01FDADE119773
:1002D000C9F751E2D6DE5E2FD4DE5F2FD2DE08955D
:1002E000A8950091600008610093600008E0009309
:1002F00060000895F894A895002704BF009160005D
:1003000008610093600000E00093600008952C985D
:10031000249A42983A9A43983B9A2D98259A2B987A
:10032000239A08952C9A14E17ED02C9808952C9A43
:100330001AEF79D02C980895429A14E174D042981B
:100340000895439A14E16FD0439808952D9A14E1CB
:100350006AD02D9808952B9A14E165D02B980895B2
:100360005E98569A5F98579A5B98539A2A9A45983E
:100370003D9A44983C9A08955E9A5F9A14E153D04E
:1003800008955E985F9814E14ED0089500270211F9
:1003900006C000270093B0000093B1000BC00027F7
:1003A0000093B20003E20093B0002092B40001E099
:1003B0000093B10014E137D0089518995D98189B07
:1003C0005D9A19995D98199B5D9A1A995D981A9B87
:1003D0005D9A30995D98309B5D9A0895459A14E135
:1003E00022D00895459814E11ED00895449A14E14E
:1003F0001AD00895449814E116D008950FEF0DBF58
:1004000002E00EBF559A5D9A82DFAADF16E00BD09C
:10041000442716DE18EC07D05D987894CEDF40FFB5
:10042000FDCFB4DEFBCF0027009380000093810056
:100430000093820000938500009384000EE6019FE4
:1004400010928900009288000DE00093810006B3AD
:0C045000026006BB06B301FFFDCF08955B
:00000001FF
